{
  "contractName": "Lottery",
  "abi": [
    {
      "inputs": [],
      "stateMutability": "nonpayable",
      "type": "constructor"
    },
    {
      "inputs": [],
      "name": "manager",
      "outputs": [
        {
          "internalType": "address",
          "name": "",
          "type": "address"
        }
      ],
      "stateMutability": "view",
      "type": "function",
      "constant": true
    },
    {
      "inputs": [],
      "name": "participantLenght",
      "outputs": [
        {
          "internalType": "uint256",
          "name": "",
          "type": "uint256"
        }
      ],
      "stateMutability": "view",
      "type": "function",
      "constant": true
    },
    {
      "inputs": [
        {
          "internalType": "uint256",
          "name": "",
          "type": "uint256"
        }
      ],
      "name": "participants",
      "outputs": [
        {
          "internalType": "address payable",
          "name": "",
          "type": "address"
        }
      ],
      "stateMutability": "view",
      "type": "function",
      "constant": true
    },
    {
      "inputs": [],
      "name": "winnerParticipant",
      "outputs": [
        {
          "internalType": "address",
          "name": "",
          "type": "address"
        }
      ],
      "stateMutability": "view",
      "type": "function",
      "constant": true
    },
    {
      "inputs": [],
      "name": "buyLottery",
      "outputs": [],
      "stateMutability": "payable",
      "type": "function",
      "payable": true
    },
    {
      "inputs": [],
      "name": "getBalance",
      "outputs": [
        {
          "internalType": "uint256",
          "name": "",
          "type": "uint256"
        }
      ],
      "stateMutability": "view",
      "type": "function",
      "constant": true
    },
    {
      "inputs": [],
      "name": "random",
      "outputs": [
        {
          "internalType": "uint256",
          "name": "",
          "type": "uint256"
        }
      ],
      "stateMutability": "view",
      "type": "function",
      "constant": true
    },
    {
      "inputs": [],
      "name": "selectWinner",
      "outputs": [],
      "stateMutability": "nonpayable",
      "type": "function"
    }
  ],
  "bytecode": "0x6080604052600060035534801561001557600080fd5b50336000806101000a81548173ffffffffffffffffffffffffffffffffffffffff021916908373ffffffffffffffffffffffffffffffffffffffff160217905550610b2c806100656000396000f3fe60806040526004361061007b5760003560e01c8063481c6a751161004e578063481c6a751461012a5780635ec01e4d146101555780638fccdd6314610180578063e7098ee81461018a5761007b565b80631130b5811461008057806312065fe0146100ab57806333a99e04146100d657806335c1d349146100ed575b600080fd5b34801561008c57600080fd5b506100956101b5565b6040516100a291906107e9565b60405180910390f35b3480156100b757600080fd5b506100c06101db565b6040516100cd919061087f565b60405180910390f35b3480156100e257600080fd5b506100eb610272565b005b3480156100f957600080fd5b50610114600480360381019061010f91906106d2565b6104aa565b6040516101219190610804565b60405180910390f35b34801561013657600080fd5b5061013f6104e9565b60405161014c91906107e9565b60405180910390f35b34801561016157600080fd5b5061016a61050d565b604051610177919061087f565b60405180910390f35b610188610547565b005b34801561019657600080fd5b5061019f610610565b6040516101ac919061087f565b60405180910390f35b600260009054906101000a900473ffffffffffffffffffffffffffffffffffffffff1681565b60008060009054906101000a900473ffffffffffffffffffffffffffffffffffffffff1673ffffffffffffffffffffffffffffffffffffffff163373ffffffffffffffffffffffffffffffffffffffff161461026c576040517f08c379a00000000000000000000000000000000000000000000000000000000081526004016102639061083f565b60405180910390fd5b47905090565b60008054906101000a900473ffffffffffffffffffffffffffffffffffffffff1673ffffffffffffffffffffffffffffffffffffffff163373ffffffffffffffffffffffffffffffffffffffff1614610300576040517f08c379a00000000000000000000000000000000000000000000000000000000081526004016102f79061083f565b60405180910390fd5b600380600180549050101561034a576040517f08c379a00000000000000000000000000000000000000000000000000000000081526004016103419061085f565b60405180910390fd5b600061035461050d565b90506000806001805490508361036a919061094c565b9050600181815481106103805761037f6109db565b5b9060005260206000200160009054906101000a900473ffffffffffffffffffffffffffffffffffffffff1691508173ffffffffffffffffffffffffffffffffffffffff166108fc6103cf6101db565b9081150290604051600060405180830381858888f193505050501580156103fa573d6000803e3d6000fd5b5081600260006101000a81548173ffffffffffffffffffffffffffffffffffffffff021916908373ffffffffffffffffffffffffffffffffffffffff1602179055506000600381905550600067ffffffffffffffff81111561045f5761045e610a0a565b5b60405190808252806020026020018201604052801561048d5781602001602082028036833780820191505090505b50600190805190602001906104a3929190610616565b5050505050565b600181815481106104ba57600080fd5b906000526020600020016000915054906101000a900473ffffffffffffffffffffffffffffffffffffffff1681565b60008054906101000a900473ffffffffffffffffffffffffffffffffffffffff1681565b60004442600180549050604051602001610529939291906107ac565b6040516020818303038152906040528051906020012060001c905090565b671bc16d674ec80000803414610592576040517f08c379a00000000000000000000000000000000000000000000000000000000081526004016105899061081f565b60405180910390fd5b6001339080600181540180825580915050600190039060005260206000200160009091909190916101000a81548173ffffffffffffffffffffffffffffffffffffffff021916908373ffffffffffffffffffffffffffffffffffffffff16021790555060036000815480929190610608906108f9565b919050555050565b60035481565b82805482825590600052602060002090810192821561068f579160200282015b8281111561068e5782518260006101000a81548173ffffffffffffffffffffffffffffffffffffffff021916908373ffffffffffffffffffffffffffffffffffffffff16021790555091602001919060010190610636565b5b50905061069c91906106a0565b5090565b5b808211156106b95760008160009055506001016106a1565b5090565b6000813590506106cc81610adf565b92915050565b6000602082840312156106e8576106e7610a39565b5b60006106f6848285016106bd565b91505092915050565b610708816108bd565b82525050565b610717816108ab565b82525050565b600061072a60118361089a565b915061073582610a3e565b602082019050919050565b600061074d600e8361089a565b915061075882610a67565b602082019050919050565b600061077060238361089a565b915061077b82610a90565b604082019050919050565b61078f816108ef565b82525050565b6107a66107a1826108ef565b610942565b82525050565b60006107b88286610795565b6020820191506107c88285610795565b6020820191506107d88284610795565b602082019150819050949350505050565b60006020820190506107fe600083018461070e565b92915050565b600060208201905061081960008301846106ff565b92915050565b600060208201905081810360008301526108388161071d565b9050919050565b6000602082019050818103600083015261085881610740565b9050919050565b6000602082019050818103600083015261087881610763565b9050919050565b60006020820190506108946000830184610786565b92915050565b600082825260208201905092915050565b60006108b6826108cf565b9050919050565b60006108c8826108cf565b9050919050565b600073ffffffffffffffffffffffffffffffffffffffff82169050919050565b6000819050919050565b6000610904826108ef565b91507fffffffffffffffffffffffffffffffffffffffffffffffffffffffffffffffff8214156109375761093661097d565b5b600182019050919050565b6000819050919050565b6000610957826108ef565b9150610962836108ef565b925082610972576109716109ac565b5b828206905092915050565b7f4e487b7100000000000000000000000000000000000000000000000000000000600052601160045260246000fd5b7f4e487b7100000000000000000000000000000000000000000000000000000000600052601260045260246000fd5b7f4e487b7100000000000000000000000000000000000000000000000000000000600052603260045260246000fd5b7f4e487b7100000000000000000000000000000000000000000000000000000000600052604160045260246000fd5b600080fd5b7f4e6f7420456e6f75676820457468657221000000000000000000000000000000600082015250565b7f4163636573732044656e69656421000000000000000000000000000000000000600082015250565b7f4e6f74204d756368207061727469636970616e7473207061727469636970617460008201527f6564210000000000000000000000000000000000000000000000000000000000602082015250565b610ae8816108ef565b8114610af357600080fd5b5056fea2646970667358221220959cb1dc8427decf71a0c8c561053622fc0a2d19c4cdf1c0cfbfe4c18285dca664736f6c63430008070033",
  "immutableReferences": {},
  "source": "// SPDX-License-Identifier: MIT\r\npragma solidity 0.8.7;\r\n\r\ncontract Lottery {\r\n    address public manager;\r\n    address payable[] public participants;\r\n    address public winnerParticipant;\r\n    uint256 public participantLenght = 0;\r\n\r\n    constructor() {\r\n        manager = msg.sender;\r\n    }\r\n\r\n    modifier costs(uint256 _amount) {\r\n        require(msg.value == 2 ether, \"Not Enough Ether!\");\r\n        _;\r\n    }\r\n\r\n    function buyLottery() public payable costs(2 ether) {\r\n        participants.push(payable(msg.sender));\r\n        participantLenght++;\r\n    }\r\n\r\n    modifier onlyOwner() {\r\n        require(msg.sender == manager, \"Access Denied!\");\r\n        _;\r\n    }\r\n\r\n    function getBalance() public view onlyOwner returns (uint256) {\r\n        return address(this).balance;\r\n    }\r\n\r\n    function random() public view returns (uint256) {\r\n        //random generator algorithm\r\n        return\r\n            uint256(\r\n                keccak256(\r\n                    abi.encodePacked(\r\n                        block.difficulty,\r\n                        block.timestamp,\r\n                        participants.length\r\n                    )\r\n                )\r\n            );\r\n    }\r\n\r\n    modifier minParticipants(uint256 _minMem) {\r\n        require(\r\n            participants.length >= _minMem,\r\n            \"Not Much participants participated!\"\r\n        );\r\n        _;\r\n    }\r\n\r\n    function selectWinner() public onlyOwner minParticipants(3) {\r\n        uint256 randomVal = random();\r\n        address payable winner;\r\n        uint256 index = randomVal % participants.length;\r\n        winner = participants[index];\r\n        winner.transfer(getBalance());\r\n        winnerParticipant = winner;\r\n        participantLenght = 0;\r\n        participants = new address payable[](0);\r\n    }\r\n}\r\n",
  "sourcePath": "E:\\Blockchain\\Ethereum\\D-Loto\\src\\contracts\\Lottery.sol",
  "compiler": {
    "name": "solc",
    "version": "0.8.7+commit.e28d00a7.Emscripten.clang"
  },
  "schemaVersion": "3.4.3",
  "updatedAt": "2021-09-14T06:57:06.136Z",
  "networkType": "ethereum",
  "devdoc": {
    "kind": "dev",
    "methods": {},
    "version": 1
  },
  "userdoc": {
    "kind": "user",
    "methods": {},
    "version": 1
  }
}